:4000000000400020110000004D1200004D12000080B500AF01F024F980B500AF314B12221A6001F007FB304B180001F051FD012001F010FB302001F097F92C4B2C4A1A6077
:400040002C4B8022D2051A602B4B2B4A126802210A431A60294B2A4A1A602A4B00221A60294B294A126808218A431A60FA23DB00180001F0C7F9254B180001F07BFA244B65
:40008000C02292001A60234B234A1A60234BBC2292011A601F4B224A1A60224BCE22D2011A601C4B204A1A60204B802212061A601F4B8022D2021A601E4B41221A601E4BB7
:4000C00042221A601D4B1900082001F0E5F9082001F008FA074B8022D2051A60C046BD4680BDC04630001040001BB70004010B40060000800C020B4078002E407C002E40AD
:400100006969000064F02E406CF02E40DC050000000301400000014040FF00800403014041FF00800803014042FF008008010B4000010B401C01014004010140A917000023
:4001400080B582B000AF72B6314B00221A60FB1D00221A7022E0FB1D1A7813005B009B185B002C4A9B183B603B681A78597809020A43997809040A43DB781B0613431800CE
:400180003B681A795B791B0213439BB2190001F039F8FB1D1A78FB1D01321A70FB1D1B78012BD8D91C4BEE2212061A601B4B992212041A601A4B992212041A60194B9922AA
:4001C00012041A60184A184B1B78DBB206210B43DBB21370154BD82212041A60144B60221A60144B144A1A60144B20221A60144B02221A60134B10221A60134B0C221A6061
:40020000FFF70AFF01F00EF8C046BD4602B080BD6CF02E4068340000000002400001024000500F4010500F4000700F4008000440000104400801044000101300180104407A
:4002400000040440080404400C04044010B5064C2378002B07D1054B002B02D0044800E000BF0123237010BD300C002000000000E8310000084B10B5002B03D007490848F6
:4002800000E000BF07480368002B00D110BD064B002BFBD09847F9E700000000340C0020E8310000A80B00200000000080B584B000AF62B601F008FB3B0018000D231A0009
:4002C000002102F089FF3B0048221A703B0045225A703B000D229A703B000A22DA7001F0E7FB03005A425341DBB2180001F0B8FB3B000421180001F01DFB054B180000F07B
:4003000057FFFA235B00180001F00EF9E7E7C0467432000080B582B000AF78600A00BB1C1A80BB1C1B88013B7A68D3181B780A2B09D1BB1C1B88BA1C591C11801A007B6884
:400340009B180D221A70BB1C1A887B681100180001F0F0FAC046BD4602B080BD80B584B000AF78600023FB6002E0FB680133FB607A68FB68D3181B78002BF6D1FB68180047
:40038000BD4604B080BDC04680B582B000AF0200FB1D1A70FB1D1B782F2B05D9FB1D1B78392B01D8012300E000231A1C01231340DBB21800BD4602B080BDC04680B584B0E4
:4003C00000AF78600023FB600EE0FA6813009B009B185B0018007B681B68591C7A6811601B78C318303BFB607B681B681B781800FFF7CAFF031EE8D1FB681800BD4604B096
:4004000080BDC04680B586B000AFF860B9607A601A00FB1C1A707B6A002B01D10023F2E03B6A102B08D90023EDE07B685A1C7A60BA68D31830221A703B6B022213400ED1B9
:400440007A68BB6A9A420AD27B681F2BEDD906E07B685A1C7A60BA68D31830221A703B6B022213400AD13B6B0122134006D07A68FB6A9A4202D27B681F2BE9D93B6B102220
:40048000134042D07A68BB6A9A4203D07A68FB6A9A420ED17B68002B0BD07B68013B7B603B6A102B05D17B68002B02D07B68013B7B603B6A102B0DD13B6B2022134009D1D9
:4004C0007B681F2B06D87B685A1C7A60BA68D31878221A703B6A102B0DD13B6B2022134009D07B681F2B06D87B685A1C7A60BA68D31858221A707B681F2B06D87B685A1C08
:400500007A60BA68D31830221A707A68FB6A9A420ED1FB1C1B78002B07D13B6B0422134003D13B6B0822134002D07B68013B7B607B681F2B22D8FB1C1B78002B07D07B68B1
:400540005A1C7A60BA68D3182D221A7016E03B6B0422134007D07B685A1C7A60BA68D3182B221A700AE03B6B0822134006D07B685A1C7A60BA68D31820221A703B6B022289
:40058000134012D13B6B012213400ED106E07B685A1C7A60BA68D31820221A707A68FB6A9A4202D27B681F2BF1D900237B610DE0FA687B69D31879687A698A1A013AB96849
:4005C0008A1812781A707B6901337B617A697B689A4203D27A697B6A9A42E9D33B6B022213400FD006E07B685A1C7A60FA68D31820221A707A68FB6A9A4203D27A687B6A8D
:400600009A42F0D37B681800BD4606B080BDC04690B595B006AFF860B9603B60FB1D1A7000237B637A6D80235B00134002D0BB68002B34D0BB683968180001F0DFFA0B0029
:400640001A003323FB181A707B6B5A1C7A633322BA181278092A05D83322BA1812783032D2B20DE07A6D20210A4001D0412200E061223321791809785218D2B20A3AD2B2CA
:4006800010217918CA543968B86801F031FA0300BB607B6B1F2B02D8BB68002BCAD1FB1D1C787A6B1023F918F8687B6D04933B6D0393FB6C0293BB6C01933B68009323006A
:4006C000FFF7A0FE03001800BD460FB090BDC046B0B594B006AFF8603A607B6000237B637A6E80235B00134003D03B687A6813433DD0386879683A6D7B6D01F0ADFB1C0051
:400700001300190022003323FB180A1C1A707B6B5A1C7A633322BA181278092A05D83322BA1812783032D2B20DE07A6E20210A4001D0412200E061223321791809785218FA
:40074000D2B20A3AD2B210217918CA543A6D7B6D3868796801F080FB03000C003B607C607B6B1F2B03D83B687A681343C1D13B6D4822BA1815787C6B1022B918F8687A6E30
:4007800004923A6E0392FA6D0292BA6D019200932B002200FFF736FE03001800BD460EB0B0BDC04690B599B000AFB860F9607A603B600023FB65002300243B647C64C04BE1
:4007C000C04CBB63FC635B23FB1800221A7000220023B868F96801F017FB031E0DD05B23FB1801221A70BA68FB680020002101F0B9FF03000C00BB60FC60BA6F80235B0012
:40080000134001D106233B673B6F092B01D909233B67B868F96802F0F9FA03007B65786D02F02AFB03000C001A002300B868F96801F098FF03000C0018002100A24A3B6FCA
:40084000DB00D3185C681B681A00230001F010FD03000C003B637C63386B796B01F01CFB03003B65386D02F049FB03000C001A002300386B796B01F075FF03000C003B64B1
:400880007C640022914B386C796C01F0D1FA031E17D03B6D01333B65386D02F02FFB8A4A3B6FDB00D3185C681B681A00230001F0C9FA031E17D000233B657B6D01337B658D
:4008C00011E00022814B386C796C01F097FA031E09D03B6D002B03D03B6D0122134002D03B6D01333B65BA6BFB6BB868F96801F09FFA031E01D0002326E13B6F002B2AD180
:40090000786D02F0B9FA03000C001A002300B868F96801F027FF03000C003B647C6400226A4B386C796C01F083FA031E03D07B6D01337B6564E00022644B386C796C01F06E
:400940005DFA031E42D07B6D0122134058D07B6D01337B6554E03B6FFB64FB6C013BFB64FC6D631CFB653B6D0A21180001F046F90B00DBB23033DAB21023FB181A55FB6D25
:400980001F2B11D83B6D0A21180001F0B1F803003B653B6D002BE0D106E0FB6D5A1CFA651022BA183021D154FB6D1F2B04D8FB6C5A1EFA64002BF0D1FB6D1F2B20D8FB6DF2
:4009C0005A1CFA651022BA182E21D15418E0FC6D631CFB657B6D0A21180001F0F9F90B00DBB23033DAB21023FB181A557B6D0A21180001F007F903007B657B6D002B03D03B
:400A0000FB6D1F2BE3D908E0C04606E0FB6D5A1CFA651022BA183021D154BB6F022213400ED1FA6D3B6F9A420AD2FB6D1F2BEDD906E0FB6D5A1CFA651022BA183021D1545F
:400A4000BB6F022213400AD1BB6F0122134006D0FA6D7B6F9A4202D2FB6D1F2BE9D9FB6D1F2B23D85B23FB181B78002B07D0FB6D5A1CFA651022BA182D21D15416E0BB6F68
:400A80000422134007D0FB6D5A1CFA651022BA182B21D1540AE0BB6F0822134006D0FB6D5A1CFA651022BA182021D154BB6F022213401BD1BB6F0122134017D10FE0C0461C
:400AC0000000C0FFFFFFDF41183400000000E03FFB6D5A1CFA651022BA182021D154FA6D7B6F9A4202D2FB6D1F2BF1D90023BB640DE07A68BB6CD318F96DBA6C8A1A013AFC
:400B0000102179188A5C1A70BB6C0133BB64BA6CFB6D9A4203D2BA6C3B689A42E9D3BB6F022213400FD006E0FB6D5A1CFA657A68D31820221A70FA6D7B6F9A4203D2FA6DC4
:400B40003B689A42F0D3FB6D1800BD4619B090BDF0B59FB008AFF861B9617A613B6100237B641AE37B691B78002B05D1FA697B6CD31800221A7015E37B691B78252B0BD013
:400B80007B6C5A1C7A64FA69D3187A6912781A707B6901337B6100E37B6901337B6100237B657B691B78203B102B36D89A00D64BD3181B689F467B6D012213437B657B6999
:400BC00001337B610123BB642AE07B6D022213437B657B6901337B610123BB6420E07B6D042213437B657B6901337B610123BB6416E07B6D082213437B657B6901337B6172
:400C00000123BB640CE07B6D102213437B657B6901337B610123BB6402E00023BB64C046BB6C002BBDD100233B657B691B781800FFF7AAFB031E07D01423FB181800FFF7B7
:400C4000BDFB03003B6518E07B691B782A2B14D13B691A1D3A611B683B633B6B002B07DA7B6D022213437B653B6B5B423B6501E03B6B3B657B6901337B610023FB647B6981
:400C80001B782E2B22D17B6D8022520013437B657B6901337B617B691B781800FFF774FB031E07D01423FB181800FFF787FB0300FB640BE07B691B782A2B07D13B691A1DBD
:400CC0003A611B68FB647B6901337B617B691B786C2B03D07B691B784C2B06D17B6D402213437B657B6901337B617B691B786C2B0AD17B6D4022134006D07B6D802213432D
:400D00007B657B6901337B617B691B78253B532B00D936E29A007D4BD3181B689F467B691B78782B03D07B691B78582B02D110233B6417E07B691B786F2B02D108233B64B3
:400D400010E07B691B78622B06D102233B647B6D102293437B6505E00A233B647B6D102293437B657B691B78582B03D17B6D202213437B657B691B78692B07D07B691B780C
:400D8000642B03D07B6D0C2293437B657B691B78692B04D07B691B78642B00D089E07B6D8022134037D03B690733072293431A0008323A615C681B68BB62FC62FA697B6C2B
:400DC000D018BB6AFC6A002C04DA1900220000244B4294413B607C60FB6ADB0FDBB23A6CBA600022FA60B9697A6C8A1A796D0791396D0691F96C05910492B968FA68029118
:400E0000039200933A687B68FFF762FC02007B6C9B187B64B5E07B6D4022134024D03B691A1D3A611B687B62FA697B6CD0187B6ADA179B1853403B607B6ADB0FD9B2BA69D4
:400E40007B6CD31A3C6C7A6D03923A6D0292FA6C0192009323000A003968FFF7D9FB02007B6C9B187B648CE03B691A1D3A611B683B62FA697B6CD0183B6ADA179B18534090
:400E80003B603B6ADB0FD9B2BA697B6CD31A3C6C7A6D03923A6D0292FA6C0192009323000A003968FFF7B4FB02007B6C9B187B6467E07B6D802213402AD0FA697B6CD0185D
:400EC0003B690733072293431A0008323A615C681B683A6C150000221600B9697A6C8A1A796D0791396D0691F96C0591049202950396002200921A002300FFF7E9FB0200F7
:400F00007B6C9B187B643CE080320000C43200007B6D402213401AD0FA697B6CD0183B691A1D3A611968BA697B6CD31A3C6C7A6D03923A6D0292FA6C01920093230000229D
:400F4000FFF766FB02007B6C9B187B6419E0FA697B6CD0183B691A1D3A611968BA697B6CD31A3C6C7A6D03923A6D0292FA6C0192009323000022FFF74BFB02007B6C9B187E
:400F80007B647B6901337B6107E13B690733072293431A0008323A615C681B681800210002F038F8031C181C01F0E0FF38607960FA697B6CD118BA697B6CD21A7B6D0293CE
:400FC0003B6D0193FB6C009313000A0038687968FFF7E8FB02007B6C9B187B647B6901337B61DAE00123FB637B6D0222134011D106E07B6C5A1C7A64FA69D31820221A701D
:401000007A6CBB699A4205D2FB6B5A1CFA633A6D9342EED37B6C5A1C7A64FA69D2183B69191D39611B68DBB213707B6D0222134011D006E07B6C5A1C7A64FA69D3182022FD
:401040001A707A6CBB699A4205D2FB6B5A1CFA633A6D9342EED37B6901337B619DE03B691A1D3A611B68BB63BB6B1800FFF776F903007B637A6D80235B00134005D07A6BB5
:40108000FB6C934200D913007B637B6D022213401CD106E07B6C5A1C7A64FA69D31820221A707A6CBB699A4210D27B6B5A1C7A633A6D9342EED309E07B6C5A1C7A64FA69DE
:4010C000D218BB6B591CB9631B7813707A6CBB699A420DD2BB6B1B78002B09D07A6D80235B001340E8D0FB6C5A1EFA64002BE3D17B6D0222134011D006E07B6C5A1C7A644A
:40110000FA69D31820221A707A6CBB699A4205D27B6B5A1C7A633A6D9342EED37B6901337B613AE008233B657B6D212213437B65FA697B6CD0183B691A1D3A611B681900E4
:40114000BA697B6CD31A7A6D03923A6D0292FA6C0192009310230022FFF75AFA02007B6C9B187B647B6901337B6116E07B6C5A1C7A64FA69D31825221A707B6901337B61E3
:401180000BE07B6C5A1C7A64FA69D3187A6912781A707B6901337B61C0467A6CBB699A4200D2DFE47B6C1800BD4617B0F0BDC0460FB480B5A2B000AF9423FB188022BA189C
:4011C00013608023FB181B689022BA18126838008021FFF7BDFC03008422BA1813608423FB181B689AB23B0011001800FFF792F88423FB181B681800BD4622B080BC08BC38
:4012000004B0184780B582B000AF786039603A687B680021180001F0DFFFC046BD4602B080BDC04680B500AF054B03221A60054B03221A60044B00221A60C046BD4680BD96
:401240003000304030003140000E3F4080B500AF01F096FF03001B680C2B00D1FEE7FEE780B586B000AF224B7B61224B3B61204B7B6135E03B691B68FB603B695B68BB6012
:401280003B699B683B6000237B600CE0FB681A68BB681A60BB680433BB60FB680433FB607B6804337B607A683B689A42EED13B69DB683B6000237B6008E0BB6800221A60DA
:4012C000BB680433BB607B6804337B607A683B689A42F2D13B6910333B617B69013B7B617B69002BC6D101F051FFFEF7DFFFFEE7010000000C35000080B582B000AF154B8A
:40130000144A126801218A431A6000237B600FE07B68032B04D8104B7A689200D35800E00E4B0F4A796889008B507B6801337B607B682F2BECD9FEF703FF0A4B00221A60E5
:40134000044B044A126801210A431A60C046BD4602B080BD00001040000000004D12000000000020C000002090B58BB000AF78602723FC1800F0B5FB03002370194B1A6845
:401380000C23FB181A60184B1A680C23FB185A607B68033B154AD35C1A000C23FB189A60134B1A680C23FB18DA601C23FB18114A1A600C23FA181C23FB185A600E4B1C2224
:4013C000BA181A600D4B0E4A1A600B4B1B682723FB181B78180000F088FBC046BD460BB090BDC04608010B4000010B407434000030001040B6EA00000800104004001040F8
:401400001700008080B584B000AF78600023FB60154B154A126801210A431A60134B144A1A60144B134A1268802109020A431A607B68002B12D01023FB600CE0012000F02B
:4014400099F800F019F8031E02D00023FB6005E07B68013B7B607B68002BEFD1FB681800BD4604B080BDC04660F02E4078002E400220000010002E4080B582B000AF054B9D
:401480001B68012213407B607B681800BD4602B080BDC0460C002E4080B584B000AF02003960FB1D1A7080239B05FB60FB1D1B781F2B02D9002000F02BF8FB1D1B78103307
:4014C0009B00FA68D3181B68BB60FB1D1B7810339B00FA68D3183A681A60BB681800BD4604B080BD80B582B000AF0200FB1D1A70064BFA1D12781F210A40012191400A0012
:401500001A60C046BD4602B080BDC04600E100E080B582B000AF0200FB1D1A7001BEC046BD4602B080BDC04680B582B000AF786009E00D4B1B68180000F0CAFA7B680B4A45
:40154000944663447B607A6880231B029A42F0D8074B1B687A685343180000F0B9FAC046BD4602B080BDC046B80B00200080FFFFB00B002080B582B000AF0200BB1D1A80FD
:40158000BB1D1B88044A12785343180000F0A0FAC046BD4602B080BDB40B002080B500AF0F4B0F4A126801218A431A600C4B0C4A126802218A431A600A4B0A4A126830214A
:4015C0008A4310210A431A60064B064A126807218A4301210A431A60C046BD4680BDC04600F02E4000FF2E4080B500AF0F4B0F4A126802218A431A600D4B0D4A126807214A
:401600008A4302210A431A60094B094A126830218A4320210A431A60044B044A126801210A431A60C046BD4680BDC04600F02E4000FF2E4080B500AFFFF7B0FF044B044A6F
:401640001268802109060A431A60C046BD4680BD00F02E4080B584B000AF78600C4B1B6801221340FB607B68002B02D0012B03D005E0FFF793FF06E0FFF7B6FF03E000205A
:40168000FFF746FFC046FB681800BD4604B080BD00F02E4090B583B000AFFC1D00F021FA03002370074B074A1268C02109020A431A60FB1D1B78180000F017FAC046BD469E
:4016C00003B090BD00010B4080B500AF054B1A68C0231B02134001D0012300E000231800BD4680BD00010B4090B583B000AFFC1D00F0F7F9030023700D4B0D4A12680D49C4
:401700000A408021C9010A431A60094B084A126808490A40802109020A431A60FB1D1B78180000F0E2F9C046BD4603B090BDC04600010B40FF3FFFFF90B585B000AF7860D9
:401740000B23FC1800F0CDF903002370FFF7BCFF031E04D00123FB60FFF7C6FF01E00023FB607B680D4A13407B600D4B0C4A12680C4911407A680A431A60094B1B68FB6883
:40178000012B01D1FFF786FF0B23FB181B78180000F0ABF9C046BD4605B090BD0404040010020B40FBFBFBFF80B500AF344B1B68042213401FD0334B1B680422134017D01D
:4017C000314B1B6804221340DA432E4B1B681A402C4B1A602C4B1B68042293431A002A4B1A602A4B1B68002B02D0284B1B6898470420FFF7A1FF224B1A688023DB001340CA
:4018000022D0204B1A688023DB00134017D01E4B1A688023DB001340DA431A4B1B681A40184B1A60184B1B68194A1A40164B1A60164B5B68002B02D0144B5B6898478023D6
:40184000DB001800FFF778FF0D4B1A688023DB02134011D00B4B1A688023DB02134006D00A4B9B68002B02D0084B9B6898478023DB021800FFF760FFC046BD4680BDC04636
:4018800010020B40C40B0020540C0020580C0020FFFBFFFF80B500AF00F066F8C046BD4680BDC04680B500AF064B064A1268802109060A431A6000F019F800F01DF8C046E0
:4018C000BD4680BD0000244080B500AF064B1B78002B04D1FFF7DEFF034B01221A70FFF7E1FFC046BD4680BD740C002080B500AFC046BD4680BDC04680B500AF00F096F860
:40190000C046BD4680BDC04680B582B000AF7860C046064B1B681F221340082BF9D0044B7A681A60C046BD4602B080BD080224404002244080B584B000AF786039600023A0
:40194000FB6009E07A68FB68D3181B781800FFF7DBFFFB680133FB60FA683B689A42F1D3C046BD4604B080BD80B500AF1B4B1C4A1A601C4B00221A601B4B1C4A1A601C4B0D
:401980001C4A1A601C4B07221A601C4B00221A601B4B01221A601B4B164A1A601A4B00221A601A4B04221A60194B00221A60194B00221A60184B00221A60184B00221A60F3
:4019C000174B00221A60174B00221A60154B1B689AB2154B1A80C046BD4680BD000024400B000002400024404800244001000A0000032440070000800403244010032440E0
:401A000044002440000224400402244050002440880E2440C80E2440480F2440080F2440C80F2440880F2440760C002080B500AF074B074A126807490A40902109040A4392
:401A40001A60054B054A12881A60C046BD4680BD00010240FFFF0FFF880F2440760C002080B584B000AF0200FB1D1A700F4B1B68DAB20F23FB1840218A431A70FB1D1B783A
:401A80009B01DBB240221340D9B20F23FB180F22BA1812780A431A70044B0F22BA1812781A60C046BD4604B080BDC0460001044080B500AF044B1B68402213409B09DBB2DD
:401AC0001800BD4680BDC04604010440000000000230800803D00138FDD1C046C046C0467047EFF3108072B6704780F310887047002243088B4274D303098B425FD3030A36
:401B00008B4244D3030B8B4228D3030C8B420DD3FF22090212BA030C8B4202D31212090265D0030B8B4219D300E0090AC30B8B4201D3CB03C01A5241830B8B4201D38B0301
:401B4000C01A5241430B8B4201D34B03C01A5241030B8B4201D30B03C01A5241C30A8B4201D3CB02C01A5241830A8B4201D38B02C01A5241430A8B4201D34B02C01A5241AC
:401B8000030A8B4201D30B02C01A5241CDD2C3098B4201D3CB01C01A524183098B4201D38B01C01A524143098B4201D34B01C01A524103098B4201D30B01C01A5241C308FB
:401BC0008B4201D3CB00C01A524183088B4201D38B00C01A524143088B4201D34B00C01A5241411A00D20146524110467047FFE701B5002000F0F0F802BDC0460029F7D0E7
:401C000076E7704703460B437FD4002243088B4274D303098B425FD3030A8B4244D3030B8B4228D3030C8B420DD3FF22090212BA030C8B4202D31212090265D0030B8B42AF
:401C400019D300E0090AC30B8B4201D3CB03C01A5241830B8B4201D38B03C01A5241430B8B4201D34B03C01A5241030B8B4201D30B03C01A5241C30A8B4201D3CB02C01AC8
:401C80005241830A8B4201D38B02C01A5241430A8B4201D34B02C01A5241030A8B4201D30B02C01A5241CDD2C3098B4201D3CB01C01A524183098B4201D38B01C01A52412E
:401CC00043098B4201D34B01C01A524103098B4201D30B01C01A5241C3088B4201D3CB00C01A524183088B4201D38B00C01A524143088B4201D34B00C01A5241411A00D27F
:401D000001465241104670475DE0CA0F00D04942031000D34042534000229C4603098B422DD3030A8B4212D3FC22890112BA030A8B420CD3890192118B4208D38901921185
:401D40008B4204D389013AD0921100E08909C3098B4201D3CB01C01A524183098B4201D38B01C01A524143098B4201D34B01C01A524103098B4201D30B01C01A5241C308B3
:401D80008B4201D3CB00C01A524183088B4201D38B00C01A5241D9D243088B4201D34B00C01A5241411A00D20146634652415B10104601D34042002B00D549427047634625
:401DC0005B1000D3404201B5002000F005F802BD0029F8D016E770477047C0468446101C62468C46191C634600E0C0461FB500F0D5F9002801D40021C8421FBD10B500F0C0
:401E000029F94042013010BD10B500F0C7F9002801DB002010BD012010BDC04610B500F0BDF9002801DD002010BD012010BDC04610B500F04FF9002801DC002010BD012044
:401E400010BDC04610B500F045F9002801DA002010BD012010BDC046002B11D1002A0FD1002900D1002802D00021C943081C07B4024802A14018029003BDC0465DFFFFFFAA
:401E800003B4684601B5029800F024F8019B9E4602B00CBC7047C04670B500220C4B04000D00FFF7CFFF002804D12000290000F0ADFF70BD064B00222000290000F052FC2E
:401EC00000F0A4FF80231B069C466044F1E7C0460000E041F0B54D46564644465F46F0B4924683B004000D0099468B422FD82CD04946504601F038F929000600200001F00D
:401F000033F9331A9846203B9B4600D574E053465A4693401F005346424693401E00AF4229D826D05B46A41BBD41002B00DA79E0002200230092019301235A46934001936E
:401F4000012342469340009319E08242D0D900220023009201930C9B002B01D01C605D600098019903B03CBC90469946A246AB46F0BDA342D6D90022002300920193434602
:401F8000002BE8D0FB0772081A4346467B080EE0AB4201D1A2420CD8A41A9D41012024196D410021013E24184D41002E06D0AB42EED9013E24196D41002EF8D15B460098FD
:401FC000019900196941002B22DB2B005A46D3402A004446E2401C005B461500002B2CDB26009E40330026004746BE403200801A994100900191AEE7424620239B1A524647
:40200000DA40414613004A468A4017001F4382E7424620239B1A2A0046469A402300F3401343D5E74246202300219B1A0022009101920122DA40019282E742462023260027
:402040009B1ADE402F00B446974066463B003343C9E7C046F0B55F4656464D464446F0B41F035C00DB0F9A46194B0E034D00C90F8046360B6D0D8B4691463F0B640D9D422E
:4020800019D0134B9C421BD00123A54206D018003CBC90469946A246AB46F0BDBE42F6D1C845F4D1D34510D0002DF0D1304303005A1E9341EBE7310001230143E7D1E0E7B9
:4020C0003A430123002AE2D1DEE70023DFE7C046FF070000F0B55F46444656464D46F0B41F033C0B2C4F0E034D00A3465C008446360B6D0DC90F9046640DDB0FBD422BD0F2
:40210000254FBC422ED0002D0ED130430700814678427841002C17D15F463A4314D14B460020002B0AD006E0002C02D15846024301D099421AD00123484218433CBC904669
:402140009946A246AB46F0BD0028F2D058425841012240421043F1E737000743D0D002204042EBE75F461743CDD0F8E7A542E2DC05DB5E45DFD808D000205E45DED2484247
:402180004841012340421843D8E7C445D3D80020C445F4D3D2E7C046FF070000F0B55F464D4644465646F0B41C03240BA4462F4C0F034D005E00C90F80463F0B6D0D8B4623
:4021C0009146760DDB0FA54220D0284CA64222D0002D12D1384344424441002E20D0002C0DD05C42634101245B421C4320003CBC90469946A246AB46F0BD002E17D05B454E
:4022000019D05B465C4201231C43EFE7390002240143EBD1D9E7614602241143E6D1D7E761460A43DBD100240028DFD0E9E761460A43E4D1E5E7B54203DD01225C42144399
:40224000D4E7B542CDDB6745DBD809D000246745CCD259464C426141012449420C43C5E7C845CED80024C845F3D3BFE7FF070000F0B55F4656464D464446F0B40D039946F8
:402280004E002B0B87B00700924680469B46760DCC0F002E69D06D4B9E4235D05B468022DD001204430F13432B439B46C3009846674B00279C460023664401934A461503E9
:4022C0005000D20F53462D0B400D914600D176E05E4A90426CD080225B0F120413435C4AED0094461D4353460022DB00604449463618701C6140029017430F2F00D9AFE0C0
:402300005448BF00C759BF465B461F4300D088E000239B469846023308270193CEE74946022A6AD0032A00D109E2012A00D0BBE111400022002300259046CCB200212D037E
:402340000A0D12052D0B1543434A1B0515401D436D00E4076D0825434046290007B03CBC90469946A246AB46F0BD034352D05B46002B00D18AE1584600F0D8FE03000B3B52
:402380001C2B00DD7BE11D22D31A3A0001005D46DA4008398D4013008F402B439B46B8462E4B00279C46002360444642019385E752462A432CD100250023022297E75246E7
:4023C0002A4321D0002D00D154E1280000F0AEFE03000B3B1C2B00DD46E11D21CB1A51460200D9405346083A954093400D431B4A944660444042002279E7012400220C40D2
:40240000124B0025904699E70025002301226EE703226CE700239B4698460133042701934CE703230C27019348E700238025984600242D03054B81E75D464346019A6FE799
:402440005D4643462100019A6AE7C046FF07000001FCFFFFA4340000FFFF0F80F30300004246120C91461A0C9446424617044A461B041B0C5A43604690464A46424310008D
:40248000039262461C003F0C7A437C4342440192220C9246019A5244904506D98246802040028046C24450460390100C049048462404240C1204121905922A0C2D042D0C4B
:4024C00068432C00824648467C4350438146200C8046574357444744BA4503D9802040028046C144380C3F04B84648442404240C01900498A044404404905846000C814659
:4025000058460404200C8246070048465F434C464343604660436446834650464443380C8446E4186444A34203D980235B029C46E34448463F04230C3F0C2404E419574650
:4025400068436F4384464D46504655434243380C814662444A445B44944503D9802040028446654403983F04834604983F0C8446E344C345804140428246100484460198FD
:40258000674484466744A344BC46A345A4419946D44464428742BF41D4458041E144A04699459B417F424042C8440743120CBA18A045A4415F423B0064422343D71843468D
:4025C0007D19DB0D6D021D435B465A02059B1A43531E9A415B46DB0D1A4343465B021343EA0107D501225C0813402343EA07029E13436D08574AB218002A4BDD580709D0CE
:402600000F201840042805D0181D98429B415B42ED180300E80104D54F4A15408022D200B2184E48824200DDE7E60124DB08680718436D02530580462D0B5B0D0C407DE6E2
:40264000802259461203114208D0154206D115432D0398462D0B4C46414B6FE65D4615432D032D0B3E4B69E603005546283B9D400023BCE6504600F059FD2030A8E60300FF
:40268000283B9F400023BB46984689E600F04EFD203073E60124A61A382E07DD00220C4000230025904649E6029EA3E71F2E20DC20222C001800921BF040944093400443D5
:4026C000581E83411C43F540630709D00F232340042B05D023001C1D9C4292415242AD182B021FD5012400220C4001230025904624E61F202C004042821AD440202E1CD016
:402700004022961BB5402B43581E83410720234318400025002809D00F2200251A401C00042AD8D1230068076D022D0B0124DB08034398460C40002300E60025E3E78022F0
:402740000124120315432D0398462D0B0C40044BF4E5C046FF030000FFFFFFFEFE070000FF070000F0B557464E464546E0B40E001100F20F9246C500420F18033703740033
:40278000400A4E0F7F0A3043CF4E17435A00640D520DDB0FC900B24200D1E5E001267340A61AB446534500D1AFE0002E00DC0DE1002A3AD103000B4300D0E4E06B0709D0AF
:4027C0000F232B40042B05D02B1DAB42AD416D427F191D003B0200D488E0BB4B01349C4200D110E13A00B94B51461A4001235007ED08520264050543120B640D0B400021BF
:40280000280012030D0D120B64052D0515436208AF4CDB072C401443640064081C4321001CBC90469946A246F0BDA74B9C42C5D080231B0418436346382B00DDFDE01F2B23
:4028400000DD30E1624620239B1A02009A40664690460A009940F24046464B1E99413243114363460200DA40691A8D429B410D00BA1A5B42D71A3B0235D57A02530A98465F
:402880004346002B00D1C4E0404600F04FFC0300083B1F2B00DDC5E020222900D21A4746D1409F400A009D403A439C4200DDC0E01C1B631C1F2B00DDE4E02021140028006B
:4028C000C91AD8408C408D400443DA40681E854117002543002471E7424663461A4300D14CE2674645466B0700D069E7012351467807ED08FA080B40054373498C4238D0EF
:4029000012036405120B640D79E7002E00DC9AE0002A47D06C4A944200D14FE78022120410436246382A00DC08E10143481E81410022C9B24919D219A942BF410D007F42EA
:40294000BF183A0200D442E15F4A0134944200D14EE101205D4A69083A4028400843D507054357089A4629E706000E4300D017E714E72900114300D1F9E1802109030A437E
:402980001203120B3BE701235B429846C4446346002B72D1691A8D429B413F1A5B42FF1A0D0068E702000A4300D107E7012252429046C4446246002A00D0E6E06918A942F5
:4029C000B6413F187642F7190D00BAE7002E00D080E0621C5205520D012A00DCF9E06A1A91464D45B6413A1A7642921B9046120200D499E04D1BA9428941C71B49427A1AAF
:402A000090469A463CE752460123002513400022F5E6280000F08AFB20300300083B1F2B00DC39E72A002838824000259C4200DC3EE7264FE41A1740C0E60143481E8141E7
:402A40000022C9B210E7002E00D0F1E0621C94465205520D012A00DCA0E01B4A944500D1C5E06918A94292413F185242D2194908D5070D4357086446A0E6134B9C4200D07D
:402A8000D9E69BE611001F3CE1400C00202B00D180E04021CB1A9A4015436A1E95410027254300241FE763460200203BDA406346202B71D0402366469B1B98400143481E96
:402AC000814111430022CFE6FF070000FFFF7FFFFFFF0F80002C48D0CA4CA24200D1A2E07442A1468024240427434C46382C00DDDBE01F2C00DD44E14E462024A41B3E00C6
:402B0000A640A246B0464C462E00E640B4464646644626435446A5406C1EA54134002C434D46EF400D1B28E04A4643464D461A4300D0A5E6002300240025DEE61F2A5ADCBB
:402B400066462022921B060096409146B04662460E00D640424616434A4691404A1E9141020060463143C240E4E63C002C435AD0F443A146002C52D14D1BA9428941C71BA0
:402B800049427F1A14009A4675E69E4A944200D0C7E613E600227FE700208FE7002C00D0C8E03B002B4300D10FE103000B4300D104E66918A9429B413F185B42DF193B02C5
:402BC00000D41AE1904B0D001F406446F6E59A4689E63A002A43002C5CD1002A75D102000A4300D1CAE007000D009A46E6E564460022002581E662460600203AD6406246D4
:402C0000B046202A00D1B7E040226646921B904001434246481E8141114300228AE6794CA24200D061E707000D0014009A46C5E5002C41D13C002C4378D0F443A146002C99
:402C400020D0704CA24271D04C46382C00DDB2E01F2C00DDBCE02026341BA2463C005646B4404E46A0462C00F440A446444666463443A4465446A54064466E1EB5412543A3
:402C80004C46E7406D188D4289413F184942CF19140056E6002A2FD102000A4300D184E007000D009A46574C88E53D436F1EBD41ECB200270D1B60E7524CA24236D07442F4
:402CC00080263604A1463743BEE702000A4300D174E56A1A90464545B6413A1A7642921B9446120200D4F7E54D1BA9428941C71B49427F1A9A4661E502000A433AD0ED08AC
:402D00007C072C438025FA082D032A4208D0C7082F4205D145072C003A009A46C9080C43670FD200E5001743364C47E507000D00140043E53A002A4343D002000A4319D047
:402D4000ED087C072C438025FA082D032A4207D0C6082E4204D147073C003200C9080C43D700620FE50017439A46264C26E50022002544E5234C21E5002049E70023002502
:402D8000BBE54C463E00203CE6404C46B446202C31D040244E46A61BB7403D436C1EA54164462C4300270D1BE7E6802200231203144C0025A1E53D436F1EBD410027EDB2BD
:402DC00060E707000D000F4CF8E407000D00F5E44E463C00203EF440A0464C46202C0ED040244E46A41BA7403D436F1EBD4144460027254346E70027CFE70D0073E50027F8
:402E0000F2E7C046FF070000FFFF7FFF0B0330B5134D1A0B4B005B0DC90F0024AB4211DD104CA34210DC8024640322430E4CE41A1F2C0CDD0D48C31ADA4013005C420029E0
:402E400000D11C00200030BD094BCC18FAE7E040084CA44663449A4013000343EEE7C046FE0300001D0400003304000013040000FFFFFF7FEDFBFFFF70B5002830D0C31733
:402E8000C4185C40C50F200000F050F9174B184A1B1AD21A1F2A18DD164AD21A9440002224035B05240B5B0D0021100024030A0D1205240B1443104A1B0514401C4364004D
:402EC000ED0764082C43210070BD210091400A000B21081AC4405B052403240B5B0DE3E70025002300240022DEE7C0461E0400003304000013040000FFFF0F8070B5051EE1
:402F000028D000F013F9154B154A1B1AD21A1F2A16DD2C00134A0025D21A94405A052403240B520D002124030B0D240B1B0523430D4C1205234013435B002800590870BDB0
:402F40000B212C00081AC440954024035A05240B520DE7E700220024E4E7C0461E0400003304000013040000FFFF0F804200120E511C4302C9B270B55D0AC40F012915DDFE
:402F8000E02189008C466D071B0B6244002128000D0D2D052B431C4D52052B40520813435B00E4075B082343190070BD002A15D1002D1FD0280000F0B9F80A281DDC0B23F4
:402FC0002A001B1ADA4013000200153295400F4A1B03121A52051B0B520DD7E7002D06D080221B0B120313436D07094ACEE7084A0023CBE700220023C8E703000B3B9D40F7
:403000002B000025E3E7C046FFFF0F8089030000FF0700004B0070B55E0D0C03751C640A420F6D052243C90FC4006D0D012D2ADD3B4BF318FE2B1ADC002B42DD8001451E17
:40304000A841D2001043620F0243500704D00F201040042800D004328020C004104021D00133FF2B03D09201520ADBB201E0FF2300225202520ADB0513435B00C9075B08C5
:403080000B43180070BD002E07D01443EFD08020D20080040243FF23D7E722430023002A03D00522D208FF2B03D05202520ADBB2DFE7002A32D08020C00302435202520A3D
:4030C000D7E71800173014DB8020000402431E20C01A1F280FDC2500124BF3189D406E1EB5419A402B0013432200C2401A430023ABE70023D5E702256D42EB1A1500DD4028
:40310000202809D0084BF3189A401443621E9441220000232A4398E70022F6E70022A8E780FCFFFF82FCFFFFA2FCFFFF1C2101231B04984201D3000C10391B0A984201D3C1
:40314000000A08391B09984201D30009043902A2105C40187047C0460403020201010101000000000000000010B5002903D1FFF7DDFF203002E0081CFFF7D8FF10BDC0462E
:40318000014B18687047C046280C00200E4B70B500251E000D4CE41AA410A54204D0AB00F35898470135F8E700F09EF9084B00251E00084CE41AA410A54204D0AB00F358ED
:4031C00098470135F8E770BDF4340000F4340000F4340000FC34000003008218934202D019700133FAE7704700000000E8ECFF7F0100000000000000427574746F6E20700E
:403200007265737365640000427574746F6E2072656C656173656400496E746572727570742072656163686564000000446973636F6E6E65637465640A0000004465766909
:40324000636520436F6E6E65637465640A0000004C4544204F46460A000000004C4544204F4E0A004E204F4E0A0000004E204F46460A000048656C6C6F20776F726C6400AF
:40328000F20B00001A0C00001A0C0000060C00001A0C00001A0C00001A0C00001A0C00001A0C00001A0C00001A0C0000DE0B00001A0C0000CA0B00001A0C00001A0C000079
:4032C000B60B00006C110000821100008211000082110000821100008211000082110000821100008211000082110000821100008211000082110000821100008211000086
:40330000821100008211000082110000821100008211000082110000821100008211000082110000821100008211000082110000821100008211000082110000821100005D
:4033400082110000821100008A0F00008211000082110000821100008211000082110000821100008211000082110000821100008211000082110000821100008211000017
:40338000821100008211000082110000821100001E0D00008211000082110000821100008211000082110000821100008211000082110000821100001E0D0000E40F00004D
:4033C0001E0D0000821100008A0F000082110000821100001E0D000082110000821100008211000082110000821100001E0D00002411000082110000821100005E10000052
:40340000821100001E0D000082110000821100001E0D000000000000000000000000F03F000000000000244000000000000059400000000000408F40000000000088C340B7
:4034400000000000006AF8400000000080842E4100000000D01263410000000084D797410000000065CDCD4100300F40000400400F400004030405060708090A0B0C0E0FC0
:40348000101112131415161718191B1C1D1E1F2021222325262728292A2B2E2F30313233343500006024000020230000202300001E23000038240000382400002A24000033
:4034C0001E230000382400002A240000382400001E2300004024000040240000402400004026000043000000F8B5C046F8BC08BC9E46704775020000F9120000F8B5C04674
:40350000F8BC08BC9E4670474D02000010380000A80B002088000000480000000000000000000000000000000000000000000000000000000000000000000000000000003E
:40354000000000000000000000000000000000000000000000000000000000000000000000000000000000000000000000000000000000000000000000000000000000004B
:40358000000000000000000000000000000000000000000000000000000000000000000000000000000000000000000000000000000000000000000000000000000000000B
:4035C00000000000000000000000000000000000000000000000000000000000000000000000000000000000000000000000000000000000000000000000000000000000CB
:40360000000000000000000000000000000000000000000000000000000000000000000000000000000000000000000000000000000000000000000000000000000000008A
:40364000000000000000000000000000000000000000000000000000000000000000000000000000000000000000000000000000000000000000000000000000000000004A
:40368000000000000000000000000000000000000000000000000000000000000000000000000000000000000000000000000000000000000000000000000000000000000A
:4036C00000000000000000000000000000000000000000000000000000000000000000000000000000000000000000000000000000000000000000000000000000000000CA
:403700000000000000000000000000000000000000000000000000000000000000000000000000000000000000000000000000000000000000000000000000000000000089
:403740000000000000000000000000000000000000000000000000000000000000000000000000000000000000000000000000000000000000000000000000000000000049
:403780000000000000000000000000000000000000000000000000000000000000000000000000000000000000000000000000000000000000000000000000000000000009
:4037C00000000000000000000000000000000000000000000000000000000000000000000000000000000000000000000000000000000000000000000000000000000000C9
:403800000000000000000000000000000004050000000000006CDC0280BB0000300000000000C05D01000000F00000000404040000000000000000000000000000000000B0
:4038400000000000000000000000000000000000E4340000000000000000000000000000000000000000000000000000000000000000000000000000000000000000000030
:4038800000000000000000000000000000000000C80B0020000000000000000000000000000000000000000000000000000000000000000000000000000000000000000015
:4038C00000000000000000000000000000000000000000000000000000000000000000000000000000000000000000000000000000000000000000000000000000000000C8
:403900000000000000000000000000000000000000000000000000000000000000000000000000000000000000000000000000000000000000000000000000000000000087
:403940000000000000000000000000000000000000000000000000000000000000000000000000000000000000000000000000000000000000000000000000000000000047
:403980000000000000000000000000000000000000000000000000000000000000000000000000000000000000000000000000000000000000000000000000000000000007
:020000040001F9
:0200000490303A
:020000008CD999
:0200000490402A
:4000000000000000000000000000000000000000000000000000000000000000000000000000000000000000000000000000000000000000000000000000000000000000C0
:400040000000000000000000000000000000000000000000000000000000000000000000000000000000000000000000000000000000000000000000000000000000000080
:0200000490501A
:0C00000000020E50119E00010E619E7760
:0200000490600A
:0100000001FE
:00000001FF